{
  "contractName": "JsonContainer",
  "abi": [
    {
      "constant": true,
      "inputs": [],
      "name": "getData",
      "outputs": [
        {
          "components": [
            {
              "name": "path",
              "type": "string"
            },
            {
              "name": "value",
              "type": "string"
            },
            {
              "name": "valueType",
              "type": "string"
            }
          ],
          "name": "",
          "type": "tuple[]"
        }
      ],
      "payable": false,
      "stateMutability": "view",
      "type": "function"
    },
    {
      "constant": false,
      "inputs": [
        {
          "components": [
            {
              "name": "path",
              "type": "string"
            },
            {
              "name": "value",
              "type": "string"
            },
            {
              "name": "valueType",
              "type": "string"
            }
          ],
          "name": "_data",
          "type": "tuple[]"
        }
      ],
      "name": "initialize",
      "outputs": [],
      "payable": false,
      "stateMutability": "nonpayable",
      "type": "function"
    },
    {
      "constant": false,
      "inputs": [
        {
          "name": "_in",
          "type": "bytes"
        }
      ],
      "name": "update",
      "outputs": [],
      "payable": false,
      "stateMutability": "nonpayable",
      "type": "function"
    }
  ],
  "bytecode": "0x608060405234801561001057600080fd5b506116d4806100206000396000f3006080604052600436106100565763ffffffff7c010000000000000000000000000000000000000000000000000000000060003504166309d2213a811461005b5780633bc5de301461007d578063c43ed2c8146100a8575b600080fd5b34801561006757600080fd5b5061007b61007636600461145f565b6100c8565b005b34801561008957600080fd5b50610092610121565b60405161009f91906115c2565b60405180910390f35b3480156100b457600080fd5b5061007b6100c336600461149c565b610344565b60006100d26111d0565b600091505b825182101561011c5782828151811015156100ee57fe5b9060200190602002015190506101118160000151826020015183604001516104b7565b6001909101906100d7565b505050565b60606001805480602002602001604051908101604052809291908181526020016000905b8282101561033a5760008481526020908190206040805160038602909201805460026001821615610100026000190190911604601f81018590049094028301608090810190925260608301848152929390928492909184918401828280156101ee5780601f106101c3576101008083540402835291602001916101ee565b820191906000526020600020905b8154815290600101906020018083116101d157829003601f168201915b50505050508152602001600182018054600181600116156101000203166002900480601f0160208091040260200160405190810160405280929190818152602001828054600181600116156101000203166002900480156102905780601f1061026557610100808354040283529160200191610290565b820191906000526020600020905b81548152906001019060200180831161027357829003601f168201915b5050509183525050600282810180546040805160206001841615610100026000190190931694909404601f810183900483028501830190915280845293810193908301828280156103225780601f106102f757610100808354040283529160200191610322565b820191906000526020600020905b81548152906001019060200180831161030557829003601f168201915b50505050508152505081526020019060010190610145565b5050505090505b90565b61034c6111f2565b606060008061035a856108c4565b935061036584610915565b9250600091505b82518210156104b0576103b4610398848481518110151561038957fe5b90602001906020020151610915565b805160039081106103a557fe5b906020019060200201516109e8565b905080151561043c576104376103f06103d4858581518110151561038957fe5b805160009081106103e157fe5b90602001906020020151610a1e565b610411610404868681518110151561038957fe5b805160019081106103e157fe5b610432610425878781518110151561038957fe5b805160029081106103e157fe5b6104b7565b6104a5565b80600114156104615761043761045c6103d4858581518110151561038957fe5b610a90565b6104a56104786103d4858581518110151561038957fe5b61048c610404868681518110151561038957fe5b6104a0610425878781518110151561038957fe5b610cbe565b60019091019061036c565b5050505050565b60006060600060606104c76111d0565b876040518082805190602001908083835b602083106104f75780518252601f1990920191602091820191016104d8565b51815160209384036101000a6000190180199092169116179052604080519290940182900382206000818152808352859020805480840285018401909652858452909b50919550909350840190508282801561057257602002820191906000526020600020905b81548152602001906001019080831161055e575b5050505050935060008451111561068557600092505b835183101561068557600184848151811015156105a157fe5b60209081029091010151815481106105b557fe5b6000918252602091829020600390910201805460408051601f60026000196101006001871615020190941693909304928301859004850281018501909152818152928301828280156106485780601f1061061d57610100808354040283529160200191610648565b820191906000526020600020905b81548152906001019060200180831161062b57829003601f168201915b5050505050915061067061065b89610f21565b61066484610f21565b9063ffffffff610f4716565b1561067a57600080fd5b600190920191610588565b506040805160608101825288815260208101889052908101869052600092505b60015483101561080c576107666107616001858154811015156106c457fe5b6000918252602091829020600390910201805460408051601f60026000196101006001871615020190941693909304928301859004850281018501909152818152928301828280156107575780601f1061072c57610100808354040283529160200191610757565b820191906000526020600020905b81548152906001019060200180831161073a57829003601f168201915b5050505050610f21565b610f5b565b15610801578060018481548110151561077b57fe5b906000526020600020906003020160008201518160000190805190602001906107a5929190611209565b5060208281015180516107be9260018501920190611209565b50604082015180516107da916002840191602090910190611209565b505050600085815260208181526040822080546001810182559083529120018390556108ba565b6001909201916106a5565b600180548082018083556000929092528251805184926003027fb10e2d527612073b26eecdfd717e6a320cf44b4afac2b0732d9fcbe2b7fa0cf6019161085791839160200190611209565b5060208281015180516108709260018501920190611209565b506040820151805161088c916002840191602090910190611209565b5050506000868152602081815260408220600180548254918201835591845291909220600019909201910155505b5050505050505050565b6108cc6111f2565b60008251600014156108f3576040805180820190915260008082526020820152915061090f565b5050604080518082019091528151815260208281019082018190525b50919050565b606060008060008061092686610f60565b151561093157600080fd5b61093a86610f8f565b93508360405190808252806020026020018201604052801561097657816020015b6109636111f2565b81526020019060019003908161095b5790505b5094506109868660200151610fdf565b8660200151019250600090505b838110156109df576109a483611042565b915060408051908101604052808381526020018481525085828151811015156109c957fe5b6020908102909101015291810191600101610993565b50505050919050565b60008060008060006109fd8660200151610fdf565b86516020978801518201519190039096036101000a90950495945050505050565b606060008060606000610a348660200151610fdf565b9350838660000151039250826040519080825280601f01601f191660200182016040528015610a6d578160200160208202803883390190505b509150816020019050610a878487602001510182856110d3565b50949350505050565b6000606060006060846040518082805190602001908083835b60208310610ac85780518252601f199092019160209182019101610aa9565b51815160209384036101000a6000190180199092169116179052604080519290940182900382206000818152808352859020805480840285018401909652858452909a509195509093508401905082828015610b4357602002820191906000526020600020905b815481526020019060010190808311610b2f575b5050505050925060008351111515610b5a57600080fd5b600091505b82518210156104b05760018383815181101515610b7857fe5b6020908102909101015181548110610b8c57fe5b6000918252602091829020600390910201805460408051601f6002600019610100600187161502019094169390930492830185900485028101850190915281815292830182828015610c1f5780601f10610bf457610100808354040283529160200191610c1f565b820191906000526020600020905b815481529060010190602001808311610c0257829003601f168201915b50505050509050610c3b610c3286610f21565b61066483610f21565b15610cb35760018383815181101515610c5057fe5b6020908102909101015181548110610c6457fe5b60009182526020822060039091020190610c7e8282611287565b610c8c600183016000611287565b610c9a600283016000611287565b50506000848152602081905260408120610cb3916112ce565b600190910190610b5f565b6000606060006060866040518082805190602001908083835b60208310610cf65780518252601f199092019160209182019101610cd7565b51815160209384036101000a6000190180199092169116179052604080519290940182900382206000818152808352859020805480840285018401909652858452909a509195509093508401905082828015610d7157602002820191906000526020600020905b815481526020019060010190808311610d5d575b5050505050925060008351111515610d8857600080fd5b600091505b8251821015610f185760018383815181101515610da657fe5b6020908102909101015181548110610dba57fe5b6000918252602091829020600390910201805460408051601f6002600019610100600187161502019094169390930492830185900485028101850190915281815292830182828015610e4d5780601f10610e2257610100808354040283529160200191610e4d565b820191906000526020600020905b815481529060010190602001808311610e3057829003601f168201915b50505050509050610e60610c3288610f21565b15610f0d576060604051908101604052808881526020018781526020018681525060018484815181101515610e9157fe5b6020908102909101015181548110610ea557fe5b90600052602060002090600302016000820151816000019080519060200190610ecf929190611209565b506020828101518051610ee89260018501920190611209565b5060408201518051610f04916002840191602090910190611209565b50905050610f18565b600190910190610d8d565b50505050505050565b610f296111f2565b50604080518082019091528151815260209182019181019190915290565b6000610f53838361111a565b159392505050565b511590565b6020810151805160009190821a9060c060ff83161015610f835760009250610f88565b600192505b5050919050565b60008060008060009250610fa68560200151610fdf565b6020860151865191810193500190505b80821015610fd657610fc782611042565b60019093019290910190610fb6565b50909392505050565b8051600090811a6080811015610ff8576000915061090f565b60b8811080611013575060c08110801590611013575060f881105b15611021576001915061090f565b60c08110156110365760b5198101915061090f565b60f5198101915061090f565b8051600090811a608081101561105b576001915061090f565b60b881101561107057607e198101915061090f565b60c081101561109d5760b78103600184019350806020036101000a8451046001820181019350505061090f565b60f88110156110b25760be198101915061090f565b60019290920151602083900360f7016101000a900490910160f51901919050565b60005b602082106110f8578351835260209384019390920191601f19909101906110d6565b50915181516020939093036101000a6000190180199091169216919091179052565b60008060008060008060008060008a6000015197508a600001518a60000151101561114457895197505b8a60200151965089602001519550600094505b878510156111ba578651865190945092508284146111a6576000199150602088101561119057600185896020030160080260020a031991505b508181168382160380156111a6578098506111c2565b602096870196958601959490940193611157565b89518b510398505b505050505050505092915050565b6060604051908101604052806060815260200160608152602001606081525090565b604080518082019091526000808252602082015290565b828054600181600116156101000203166002900490600052602060002090601f016020900481019282601f1061124a57805160ff1916838001178555611277565b82800160010185558215611277579182015b8281111561127757825182559160200191906001019061125c565b506112839291506112e8565b5090565b50805460018160011615610100020316600290046000825580601f106112ad57506112cb565b601f0160209004906000526020600020908101906112cb91906112e8565b50565b50805460008255906000526020600020908101906112cb91905b61034191905b8082111561128357600081556001016112ee565b6000601f8201831361131357600080fd5b813561132661132182611601565b6115da565b81815260209384019390925082018360005b83811015611364578135860161134e88826113bd565b8452506020928301929190910190600101611338565b5050505092915050565b6000601f8201831361137f57600080fd5b813561138d61132182611622565b915080825260208301602083018583830111156113a957600080fd5b6113b4838284611654565b50505092915050565b6000606082840312156113cf57600080fd5b6113d960606115da565b9050813567ffffffffffffffff8111156113f257600080fd5b6113fe8482850161136e565b825250602082013567ffffffffffffffff81111561141b57600080fd5b6114278482850161136e565b602083015250604082013567ffffffffffffffff81111561144757600080fd5b6114538482850161136e565b60408301525092915050565b60006020828403121561147157600080fd5b813567ffffffffffffffff81111561148857600080fd5b61149484828501611302565b949350505050565b6000602082840312156114ae57600080fd5b813567ffffffffffffffff8111156114c557600080fd5b6114948482850161136e565b60006114dc82611650565b808452602084019350836020820285016114f58561164a565b60005b8481101561152c57838303885261151083835161156d565b925061151b8261164a565b6020989098019791506001016114f8565b50909695505050505050565b600061154382611650565b808452611557816020860160208601611660565b61156081611690565b9093016020019392505050565b80516060808452600091908401906115858282611538565b9150506020830151848203602086015261159f8282611538565b915050604083015184820360408601526115b98282611538565b95945050505050565b602080825281016115d381846114d1565b9392505050565b60405181810167ffffffffffffffff811182821017156115f957600080fd5b604052919050565b600067ffffffffffffffff82111561161857600080fd5b5060209081020190565b600067ffffffffffffffff82111561163957600080fd5b506020601f91909101601f19160190565b60200190565b5190565b82818337506000910152565b60005b8381101561167b578181015183820152602001611663565b8381111561168a576000848401525b50505050565b601f01601f1916905600a265627a7a7230582037a28e2f273ee24088dfcf2cd01d8229383986dbd9782641f7d90f92d4eb4bb76c6578706572696d656e74616cf50037",
  "source": "pragma solidity ^0.4.24;\r\npragma experimental ABIEncoderV2;\r\n\r\nimport \"./lib/Strings.sol\";\r\nimport \"./lib/Structs.sol\";\r\nimport \"../node_modules/solidity-rlp/contracts/RLPReader.sol\";\r\n\r\ncontract JsonContainer is Structs {\r\n\r\n  using Strings for *;\r\n  using RLPReader for bytes;\r\n  using RLPReader for uint;\r\n  using RLPReader for RLPReader.RLPItem;\r\n\r\n  mapping (bytes32 => uint[]) private hashIndexMap_;\r\n\r\n  PathValue[] private data_;\r\n\r\n  function getData() public view returns (PathValue[]) {\r\n    return data_;\r\n  }\r\n\r\n  function initialize(PathValue[] _data) public {\r\n    for (uint i = 0;i < _data.length; i++) {\r\n      PathValue memory pathValue = _data[i];\r\n      _addPath(pathValue.path, pathValue.value, pathValue.valueType);\r\n    }\r\n  }\r\n\r\n  function update(bytes memory _in) public {\r\n    RLPReader.RLPItem memory item = _in.toRlpItem();\r\n    RLPReader.RLPItem[] memory itemList = item.toList();\r\n    for (uint i = 0; i < itemList.length; i++) {\r\n      uint difference = itemList[i].toList()[3].toUint();\r\n      if (difference == 0) { //addition\r\n        _addPath(string(itemList[i].toList()[0].toBytes()), string(itemList[i].toList()[1].toBytes()), string(itemList[i].toList()[2].toBytes()));\r\n      } else if (difference == 1) { //deletion\r\n        _deletePath(string(itemList[i].toList()[0].toBytes()));\r\n      } else { //modification\r\n        _modifyPath(string(itemList[i].toList()[0].toBytes()), string(itemList[i].toList()[1].toBytes()), string(itemList[i].toList()[2].toBytes()));\r\n      }\r\n    }\r\n  }\r\n\r\n  function _addPath(string _path, string _value, string _valueType) internal {\r\n    bytes32 pathHash = keccak256(bytes(_path));\r\n    uint[] memory indexArray = hashIndexMap_[pathHash];\r\n    if (indexArray.length > 0) {\r\n      for (uint i = 0; i < indexArray.length; i++) {\r\n        string memory storedPath = data_[indexArray[i]].path;\r\n        require(!storedPath.toSlice().equals(_path.toSlice()));\r\n      }\r\n    }\r\n    PathValue memory pathValue = PathValue(_path, _value, _valueType);\r\n    for (i = 0; i < data_.length; i++) {\r\n      if (data_[i].path.toSlice().empty()) {\r\n        data_[i] = pathValue;\r\n        hashIndexMap_[pathHash].push(i);\r\n        return;\r\n      }\r\n    }\r\n    data_.push(pathValue);\r\n    hashIndexMap_[pathHash].push(data_.length - 1); \r\n  }\r\n\r\n  function _deletePath(string _path) internal {\r\n    bytes32 pathHash = keccak256(bytes(_path));\r\n    uint[] memory indexArray = hashIndexMap_[pathHash];\r\n    require(indexArray.length > 0);\r\n    for (uint i = 0; i < indexArray.length; i++) {\r\n      string memory storedPath = data_[indexArray[i]].path;\r\n      if (storedPath.toSlice().equals(_path.toSlice())) {\r\n        delete data_[indexArray[i]];\r\n        delete hashIndexMap_[pathHash];\r\n      }\r\n    }\r\n  }\r\n\r\n  function _modifyPath(string _path, string _value, string _valueType) internal {\r\n    bytes32 pathHash = keccak256(bytes(_path));\r\n    uint[] memory indexArray = hashIndexMap_[pathHash];\r\n    require(indexArray.length > 0);\r\n    for (uint i = 0; i < indexArray.length; i++) {\r\n      string memory storedPath = data_[indexArray[i]].path;\r\n      if (storedPath.toSlice().equals(_path.toSlice())) {\r\n        data_[indexArray[i]] = PathValue(_path, _value, _valueType);\r\n        return;\r\n      }\r\n    }\r\n  }\r\n\r\n}",
  "sourcePath": "C:\\Users\\a562145\\git\\json-warehouse\\contracts\\JsonContainer.sol",
  "compiler": {
    "name": "solc",
    "version": "0.4.24+commit.e67f0147.Emscripten.clang"
  },
  "schemaVersion": "2.0.1",
  "updatedAt": "2018-11-22T14:06:33.333Z"
}